{"abi":[{"type":"function","name":"allTokens","inputs":[{"name":"","type":"uint256","internalType":"uint256"}],"outputs":[{"name":"","type":"address","internalType":"address"}],"stateMutability":"view"},{"type":"function","name":"checkAllFaucets","inputs":[{"name":"user","type":"address","internalType":"address"}],"outputs":[{"name":"symbols","type":"string[]","internalType":"string[]"},{"name":"canClaim","type":"bool[]","internalType":"bool[]"},{"name":"timeUntilNext","type":"uint256[]","internalType":"uint256[]"}],"stateMutability":"view"},{"type":"function","name":"claimAllFaucets","inputs":[],"outputs":[],"stateMutability":"nonpayable"},{"type":"function","name":"deployAllTokens","inputs":[],"outputs":[],"stateMutability":"nonpayable"},{"type":"function","name":"deployed","inputs":[],"outputs":[{"name":"","type":"bool","internalType":"bool"}],"stateMutability":"view"},{"type":"function","name":"getAllTokens","inputs":[],"outputs":[{"name":"","type":"address[]","internalType":"address[]"}],"stateMutability":"view"},{"type":"function","name":"mBTC","inputs":[],"outputs":[{"name":"","type":"address","internalType":"contract MockERC20"}],"stateMutability":"view"},{"type":"function","name":"mDAI","inputs":[],"outputs":[{"name":"","type":"address","internalType":"contract MockERC20"}],"stateMutability":"view"},{"type":"function","name":"mETH","inputs":[],"outputs":[{"name":"","type":"address","internalType":"contract MockERC20"}],"stateMutability":"view"},{"type":"function","name":"mLINK","inputs":[],"outputs":[{"name":"","type":"address","internalType":"contract MockERC20"}],"stateMutability":"view"},{"type":"function","name":"mUSDC","inputs":[],"outputs":[{"name":"","type":"address","internalType":"contract MockERC20"}],"stateMutability":"view"},{"type":"function","name":"mUSDE","inputs":[],"outputs":[{"name":"","type":"address","internalType":"contract MockERC20"}],"stateMutability":"view"},{"type":"function","name":"mUSDT","inputs":[],"outputs":[{"name":"","type":"address","internalType":"contract MockERC20"}],"stateMutability":"view"},{"type":"function","name":"mintLiquidity","inputs":[{"name":"token","type":"address","internalType":"address"},{"name":"to","type":"address","internalType":"address"},{"name":"amount","type":"uint256","internalType":"uint256"}],"outputs":[],"stateMutability":"nonpayable"},{"type":"event","name":"FaucetsClaimed","inputs":[{"name":"user","type":"address","indexed":true,"internalType":"address"},{"name":"tokensClaimed","type":"uint256","indexed":false,"internalType":"uint256"}],"anonymous":false},{"type":"event","name":"LiquidityMinted","inputs":[{"name":"token","type":"address","indexed":true,"internalType":"address"},{"name":"to","type":"address","indexed":true,"internalType":"address"},{"name":"amount","type":"uint256","indexed":false,"internalType":"uint256"}],"anonymous":false},{"type":"event","name":"TokensDeployed","inputs":[{"name":"tokens","type":"address[]","indexed":false,"internalType":"address[]"}],"anonymous":false},{"type":"error","name":"AlreadyDeployed","inputs":[]},{"type":"error","name":"NotDeployed","inputs":[]},{"type":"error","name":"NotTokenOwner","inputs":[]}],"bytecode":{"object":"0x6080604052348015600e575f80fd5b5061269d8061001c5f395ff3fe608060405234801561000f575f80fd5b50600436106100e5575f3560e01c80636259d54d1161008857806394eae9581161006357806394eae958146101c5578063cf81d3d0146101d8578063f89ec5f5146101eb578063f905c15a146101fd575f80fd5b80636259d54d14610197578063634282af1461019f57806371e35a8e146101b2575f80fd5b806337041dbd116100c357806337041dbd146101545780633fc3db5914610167578063452479731461017c57806358ace2601461018f575f80fd5b80631c58d535146100e957806329e84867146101145780632a5c792a1461013f575b5f80fd5b6100fc6100f73660046114fa565b61021a565b60405161010b93929190611586565b60405180910390f35b600154610127906001600160a01b031681565b6040516001600160a01b03909116815260200161010b565b61014761090d565b60405161010b9190611632565b600254610127906001600160a01b031681565b61017a61017536600461167d565b61096d565b005b600654610127906001600160a01b031681565b61017a610ab3565b61017a611184565b6101276101ad3660046116b7565b6114aa565b600554610127906001600160a01b031681565b600354610127906001600160a01b031681565b600454610127906001600160a01b031681565b5f54610127906001600160a01b031681565b60085461020a9060ff1681565b604051901515815260200161010b565b6008546060908190819060ff1661024457604051637748251360e01b815260040160405180910390fd5b604080516007808252610100820190925290816020015b606081526020019060019003908161025b57505060408051600780825261010082019092529194506020820160e0803683375050604080516007808252610100820190925292945090506020820160e080368337019050509050604051806040016040528060058152602001646d5553444360d81b815250835f815181106102e5576102e56116ce565b60209081029190910101525f5460405162ec514b60e11b81526001600160a01b038681166004830152909116906301d8a296906024016040805180830381865afa158015610335573d5f803e3d5ffd5b505050506040513d601f19601f8201168201806040525081019061035991906116e2565b835f8151811061036b5761036b6116ce565b60200260200101835f81518110610384576103846116ce565b602002602001018281525082151515158152505050604051806040016040528060048152602001630da8aa8960e31b815250836001815181106103c9576103c96116ce565b602090810291909101015260015460405162ec514b60e11b81526001600160a01b038681166004830152909116906301d8a296906024016040805180830381865afa15801561041a573d5f803e3d5ffd5b505050506040513d601f19601f8201168201806040525081019061043e91906116e2565b83600181518110610451576104516116ce565b602002602001018360018151811061046b5761046b6116ce565b602002602001018281525082151515158152505050604051806040016040528060048152602001636d44414960e01b815250836002815181106104b0576104b06116ce565b602090810291909101015260025460405162ec514b60e11b81526001600160a01b038681166004830152909116906301d8a296906024016040805180830381865afa158015610501573d5f803e3d5ffd5b505050506040513d601f19601f8201168201806040525081019061052591906116e2565b83600281518110610538576105386116ce565b6020026020010183600281518110610552576105526116ce565b602002602001018281525082151515158152505050604051806040016040528060048152602001636d42544360e01b81525083600381518110610597576105976116ce565b602090810291909101015260035460405162ec514b60e11b81526001600160a01b038681166004830152909116906301d8a296906024016040805180830381865afa1580156105e8573d5f803e3d5ffd5b505050506040513d601f19601f8201168201806040525081019061060c91906116e2565b8360038151811061061f5761061f6116ce565b6020026020010183600381518110610639576106396116ce565b602002602001018281525082151515158152505050604051806040016040528060058152602001646d4c494e4b60d81b8152508360048151811061067f5761067f6116ce565b60209081029190910101526004805460405162ec514b60e11b81526001600160a01b03878116938201939093529116906301d8a296906024016040805180830381865afa1580156106d2573d5f803e3d5ffd5b505050506040513d601f19601f820116820180604052508101906106f691906116e2565b83600481518110610709576107096116ce565b6020026020010183600481518110610723576107236116ce565b602002602001018281525082151515158152505050604051806040016040528060058152602001641b5554d11560da1b81525083600581518110610769576107696116ce565b602090810291909101015260055460405162ec514b60e11b81526001600160a01b038681166004830152909116906301d8a296906024016040805180830381865afa1580156107ba573d5f803e3d5ffd5b505050506040513d601f19601f820116820180604052508101906107de91906116e2565b836005815181106107f1576107f16116ce565b602002602001018360058151811061080b5761080b6116ce565b602002602001018281525082151515158152505050604051806040016040528060058152602001646d5553444560d81b81525083600681518110610851576108516116ce565b602090810291909101015260065460405162ec514b60e11b81526001600160a01b038681166004830152909116906301d8a296906024016040805180830381865afa1580156108a2573d5f803e3d5ffd5b505050506040513d601f19601f820116820180604052508101906108c691906116e2565b836006815181106108d9576108d96116ce565b60200260200101836006815181106108f3576108f36116ce565b602090810291909101019190915290151590529193909250565b6060600780548060200260200160405190810160405280929190818152602001828054801561096357602002820191905f5260205f20905b81546001600160a01b03168152600190910190602001808311610945575b5050505050905090565b60085460ff1661099057604051637748251360e01b815260040160405180910390fd5b5f805b6007548110156109e457846001600160a01b0316600782815481106109ba576109ba6116ce565b5f918252602090912001546001600160a01b0316036109dc57600191506109e4565b600101610993565b5080610a03576040516359dc379f60e01b815260040160405180910390fd5b6040516340c10f1960e01b81526001600160a01b038481166004830152602482018490528516906340c10f19906044015f604051808303815f87803b158015610a4a575f80fd5b505af1158015610a5c573d5f803e3d5ffd5b50505050826001600160a01b0316846001600160a01b03167fec89d80a36947288037745287dde87d62cd8c141d5323130b3d26d97d84004c784604051610aa591815260200190565b60405180910390a350505050565b60085460ff1615610ad75760405163a6ef0ba160e01b815260040160405180910390fd5b60066402540be40030604051610aec906114d2565b60a0808252600b908201527f4d616e747561205553444300000000000000000000000000000000000000000060c082015260e060208201819052600590820152646d5553444360d81b61010082015260ff909316604084015260608301919091526001600160a01b0316608082015261012001604051809103905ff080158015610b78573d5f803e3d5ffd5b505f806101000a8154816001600160a01b0302191690836001600160a01b031602179055506012678ac7230489e8000030604051610bb5906114d2565b60a0808252600a908201527f4d616e747561204554480000000000000000000000000000000000000000000060c082015260e060208201819052600490820152630da8aa8960e31b61010082015260ff909316604084015260608301919091526001600160a01b0316608082015261012001604051809103905ff080158015610c40573d5f803e3d5ffd5b5060015f6101000a8154816001600160a01b0302191690836001600160a01b03160217905550601269021e19e0c9bab240000030604051610c80906114d2565b60a0808252600a908201527f4d616e747561204441490000000000000000000000000000000000000000000060c082015260e060208201819052600490820152636d44414960e01b61010082015260ff909316604084015260608301919091526001600160a01b0316608082015261012001604051809103905ff080158015610d0b573d5f803e3d5ffd5b5060025f6101000a8154816001600160a01b0302191690836001600160a01b0316021790555060086305f5e10030604051610d45906114d2565b60a0808252600a908201527f4d616e747561204254430000000000000000000000000000000000000000000060c082015260e060208201819052600490820152636d42544360e01b61010082015260ff909316604084015260608301919091526001600160a01b0316608082015261012001604051809103905ff080158015610dd0573d5f803e3d5ffd5b5060035f6101000a8154816001600160a01b0302191690836001600160a01b03160217905550601268056bc75e2d6310000030604051610e0f906114d2565b60a0808252600b908201527f4d616e747561204c494e4b00000000000000000000000000000000000000000060c082015260e060208201819052600590820152646d4c494e4b60d81b61010082015260ff909316604084015260608301919091526001600160a01b0316608082015261012001604051809103905ff080158015610e9b573d5f803e3d5ffd5b5060045f6101000a8154816001600160a01b0302191690836001600160a01b0316021790555060066402540be40030604051610ed6906114d2565b60a0808252600b908201527f4d616e747561205553445400000000000000000000000000000000000000000060c082015260e060208201819052600590820152641b5554d11560da1b61010082015260ff909316604084015260608301919091526001600160a01b0316608082015261012001604051809103905ff080158015610f62573d5f803e3d5ffd5b5060055f6101000a8154816001600160a01b0302191690836001600160a01b03160217905550601269021e19e0c9bab240000030604051610fa2906114d2565b60a0808252600b908201527f4d616e747561205553446500000000000000000000000000000000000000000060c082015260e060208201819052600590820152646d5553444560d81b61010082015260ff909316604084015260608301919091526001600160a01b0316608082015261012001604051809103905ff08015801561102e573d5f803e3d5ffd5b50600680546001600160a01b039283167fffffffffffffffffffffffff00000000000000000000000000000000000000009182161782555f80546007805460018181018355938290527fa66cc928b5edb82af9bd49922954155ab7b0942694bea4ce44661d9a8736c688908101805486169388169390931790925582548154808501835583018054861691881691909117905560025481548085018355830180548616918816919091179055600354815480850183558301805486169188169190911790556004548154808501835583018054861691881691909117905560055481548085018355830180548616918816919091179055935484548084018655909101805490931694169390931790556008805460ff19169092179091556040517f97719712201ffab734d58d54e40ddf4254941a1a09ac8c4fc11cff61cb61e3c09161117a91611712565b60405180910390a1565b60085460ff166111a757604051637748251360e01b815260040160405180910390fd5b5f805460405163801a476560e01b81523360048201526001600160a01b039091169063801a4765906024015f604051808303815f87803b1580156111e9575f80fd5b505af19250505080156111fa575060015b1561120d578061120981611755565b9150505b60015460405163801a476560e01b81523360048201526001600160a01b039091169063801a4765906024015f604051808303815f87803b15801561124f575f80fd5b505af1925050508015611260575060015b15611273578061126f81611755565b9150505b60025460405163801a476560e01b81523360048201526001600160a01b039091169063801a4765906024015f604051808303815f87803b1580156112b5575f80fd5b505af19250505080156112c6575060015b156112d957806112d581611755565b9150505b60035460405163801a476560e01b81523360048201526001600160a01b039091169063801a4765906024015f604051808303815f87803b15801561131b575f80fd5b505af192505050801561132c575060015b1561133f578061133b81611755565b9150505b6004805460405163801a476560e01b815233928101929092526001600160a01b03169063801a4765906024015f604051808303815f87803b158015611382575f80fd5b505af1925050508015611393575060015b156113a657806113a281611755565b9150505b60055460405163801a476560e01b81523360048201526001600160a01b039091169063801a4765906024015f604051808303815f87803b1580156113e8575f80fd5b505af19250505080156113f9575060015b1561140c578061140881611755565b9150505b60065460405163801a476560e01b81523360048201526001600160a01b039091169063801a4765906024015f604051808303815f87803b15801561144e575f80fd5b505af192505050801561145f575060015b15611472578061146e81611755565b9150505b60405181815233907f3d21ed5692d02e24b9c4ae33e23623e761584b4606e90b295d853ee71031939d9060200160405180910390a250565b600781815481106114b9575f80fd5b5f918252602090912001546001600160a01b0316905081565b610eee8061177a83390190565b80356001600160a01b03811681146114f5575f80fd5b919050565b5f6020828403121561150a575f80fd5b611513826114df565b9392505050565b5f8151808452602084019350602083015f5b8281101561154c578151151586526020958601959091019060010161152c565b5093949350505050565b5f8151808452602084019350602083015f5b8281101561154c578151865260209586019590910190600101611568565b5f606082016060835280865180835260808501915060808160051b8601019250602088015f5b828110156115fe57607f19878603018452815180518087528060208301602089015e5f602082890101526020601f19601f830116880101965050506020820191506020840193506001810190506115ac565b505050508281036020840152611614818661151a565b905082810360408401526116288185611556565b9695505050505050565b602080825282518282018190525f918401906040840190835b818110156116725783516001600160a01b031683526020938401939092019160010161164b565b509095945050505050565b5f805f6060848603121561168f575f80fd5b611698846114df565b92506116a6602085016114df565b929592945050506040919091013590565b5f602082840312156116c7575f80fd5b5035919050565b634e487b7160e01b5f52603260045260245ffd5b5f80604083850312156116f3575f80fd5b82518015158114611702575f80fd5b6020939093015192949293505050565b602080825282548282018190525f848152918220906040840190835b818110156116725783546001600160a01b031683526001938401936020909301920161172e565b5f6001820161177257634e487b7160e01b5f52601160045260245ffd5b506001019056fe60c060405234801561000f575f80fd5b50604051610eee380380610eee83398101604081905261002e91610186565b808585600361003d83826102af565b50600461004a82826102af565b5050506001600160a01b03811661007a57604051631e4fbdf760e01b81525f600482015260240160405180910390fd5b61008381610098565b505060ff90911660805260a052506103699050565b600580546001600160a01b038381166001600160a01b0319831681179093556040519116919082907f8be0079c531659141344cd1fd0a4f28419497f9722a3daafe3b4186f6b6457e0905f90a35050565b634e487b7160e01b5f52604160045260245ffd5b5f82601f83011261010c575f80fd5b81516001600160401b03811115610125576101256100e9565b604051601f8201601f19908116603f011681016001600160401b0381118282101715610153576101536100e9565b60405281815283820160200185101561016a575f80fd5b8160208501602083015e5f918101602001919091529392505050565b5f805f805f60a0868803121561019a575f80fd5b85516001600160401b038111156101af575f80fd5b6101bb888289016100fd565b602088015190965090506001600160401b038111156101d8575f80fd5b6101e4888289016100fd565b945050604086015160ff811681146101fa575f80fd5b6060870151608088015191945092506001600160a01b038116811461021d575f80fd5b809150509295509295909350565b600181811c9082168061023f57607f821691505b60208210810361025d57634e487b7160e01b5f52602260045260245ffd5b50919050565b601f8211156102aa57805f5260205f20601f840160051c810160208510156102885750805b601f840160051c820191505b818110156102a7575f8155600101610294565b50505b505050565b81516001600160401b038111156102c8576102c86100e9565b6102dc816102d6845461022b565b84610263565b6020601f82116001811461030e575f83156102f75750848201515b5f19600385901b1c1916600184901b1784556102a7565b5f84815260208120601f198516915b8281101561033d578785015182556020948501946001909201910161031d565b508482101561035a57868401515f19600387901b60f8161c191681555b50505050600190811b01905550565b60805160a051610b566103985f395f81816102b201528181610725015261074f01525f6101e00152610b565ff3fe608060405234801561000f575f80fd5b5060043610610149575f3560e01c80637d1d5d19116100c75780639c2814301161007d578063dd62ed3e11610063578063dd62ed3e146102e7578063de5f72fd1461031f578063f2fde38b14610327575f80fd5b80639c281430146102ad578063a9059cbb146102d4575f80fd5b80638a877205116100ad5780638a8772051461026b5780638da5cb5b1461028a57806395d89b41146102a5575f80fd5b80637d1d5d191461024f578063801a476514610258575f80fd5b806323b872dd1161011c57806340c10f191161010257806340c10f191461020a57806370a082311461021f578063715018a614610247575f80fd5b806323b872dd146101c6578063313ce567146101d9575f80fd5b806301d8a2961461014d57806306fdde031461017c578063095ea7b31461019157806318160ddd146101b4575b5f80fd5b61016061015b3660046109c6565b61033a565b6040805192151583526020830191909152015b60405180910390f35b6101846103a2565b60405161017391906109e6565b6101a461019f366004610a1b565b610432565b6040519015158152602001610173565b6002545b604051908152602001610173565b6101a46101d4366004610a43565b61044b565b60405160ff7f0000000000000000000000000000000000000000000000000000000000000000168152602001610173565b61021d610218366004610a1b565b61046e565b005b6101b861022d3660046109c6565b6001600160a01b03165f9081526020819052604090205490565b61021d610484565b6101b8610e1081565b61021d6102663660046109c6565b610497565b6101b86102793660046109c6565b60066020525f908152604090205481565b6005546040516001600160a01b039091168152602001610173565b6101846104ab565b6101b87f000000000000000000000000000000000000000000000000000000000000000081565b6101a46102e2366004610a1b565b6104ba565b6101b86102f5366004610a7d565b6001600160a01b039182165f90815260016020908152604080832093909416825291909152205490565b61021d6104c7565b61021d6103353660046109c6565b6104d0565b6001600160a01b0381165f90815260066020526040812054819080820361036757506001935f9350915050565b5f6103728242610ac2565b9050610e10811061038a57506001945f945092505050565b5f61039782610e10610ac2565b935093505050915091565b6060600380546103b190610ad5565b80601f01602080910402602001604051908101604052809291908181526020018280546103dd90610ad5565b80156104285780601f106103ff57610100808354040283529160200191610428565b820191905f5260205f20905b81548152906001019060200180831161040b57829003601f168201915b5050505050905090565b5f3361043f81858561050f565b60019150505b92915050565b5f33610458858285610521565b61046385858561059d565b506001949350505050565b6104766105fa565b6104808282610627565b5050565b61048c6105fa565b6104955f61065b565b565b61049f6105fa565b6104a8816106c4565b50565b6060600480546103b190610ad5565b5f3361043f81858561059d565b610495336106c4565b6104d86105fa565b6001600160a01b03811661050657604051631e4fbdf760e01b81525f60048201526024015b60405180910390fd5b6104a88161065b565b61051c83838360016107b3565b505050565b6001600160a01b038381165f908152600160209081526040808320938616835292905220545f19811015610597578181101561058957604051637dc7a0d960e11b81526001600160a01b038416600482015260248101829052604481018390526064016104fd565b61059784848484035f6107b3565b50505050565b6001600160a01b0383166105c657604051634b637e8f60e11b81525f60048201526024016104fd565b6001600160a01b0382166105ef5760405163ec442f0560e01b81525f60048201526024016104fd565b61051c838383610885565b6005546001600160a01b031633146104955760405163118cdaa760e01b81523360048201526024016104fd565b6001600160a01b0382166106505760405163ec442f0560e01b81525f60048201526024016104fd565b6104805f8383610885565b600580546001600160a01b038381167fffffffffffffffffffffffff0000000000000000000000000000000000000000831681179093556040519116919082907f8be0079c531659141344cd1fd0a4f28419497f9722a3daafe3b4186f6b6457e0905f90a35050565b5f806106cf8361033a565b91509150816106f457604051639ad22e0f60e01b8152600481018290526024016104fd565b6001600160a01b0383165f908152600660205260408120429081905561071d90610e1090610b0d565b9050610749847f0000000000000000000000000000000000000000000000000000000000000000610627565b604080517f00000000000000000000000000000000000000000000000000000000000000008152602081018390526001600160a01b038616917fa19a7d2b5bf6a987a66e0eac8a6eb2dbd34ae6a43285849af788b224268ec022910160405180910390a250505050565b6001600160a01b0384166107dc5760405163e602df0560e01b81525f60048201526024016104fd565b6001600160a01b03831661080557604051634a1406b160e11b81525f60048201526024016104fd565b6001600160a01b038085165f908152600160209081526040808320938716835292905220829055801561059757826001600160a01b0316846001600160a01b03167f8c5be1e5ebec7d5bd14f71427d1e84f3dd0314c0f7b2291e5b200ac8c7c3b9258460405161087791815260200190565b60405180910390a350505050565b6001600160a01b0383166108af578060025f8282546108a49190610b0d565b9091555061091f9050565b6001600160a01b0383165f90815260208190526040902054818110156109015760405163391434e360e21b81526001600160a01b038516600482015260248101829052604481018390526064016104fd565b6001600160a01b0384165f9081526020819052604090209082900390555b6001600160a01b03821661093b57600280548290039055610959565b6001600160a01b0382165f9081526020819052604090208054820190555b816001600160a01b0316836001600160a01b03167fddf252ad1be2c89b69c2b068fc378daa952ba7f163c4a11628f55a4df523b3ef8360405161099e91815260200190565b60405180910390a3505050565b80356001600160a01b03811681146109c1575f80fd5b919050565b5f602082840312156109d6575f80fd5b6109df826109ab565b9392505050565b602081525f82518060208401528060208501604085015e5f604082850101526040601f19601f83011684010191505092915050565b5f8060408385031215610a2c575f80fd5b610a35836109ab565b946020939093013593505050565b5f805f60608486031215610a55575f80fd5b610a5e846109ab565b9250610a6c602085016109ab565b929592945050506040919091013590565b5f8060408385031215610a8e575f80fd5b610a97836109ab565b9150610aa5602084016109ab565b90509250929050565b634e487b7160e01b5f52601160045260245ffd5b8181038181111561044557610445610aae565b600181811c90821680610ae957607f821691505b602082108103610b0757634e487b7160e01b5f52602260045260245ffd5b50919050565b8082018082111561044557610445610aae56fea2646970667358221220d8bce1213c83a423e6fd7913d491c6ce5e13c5e90fad6313144751ad92053c9b64736f6c634300081a0033a26469706673582212209360a1433013600c7d51a1c0fe49e48a5ffdfe7dd60bf9cb612713c7c229ada364736f6c634300081a0033","linkReferences":{}},"methodIdentifiers":{"allTokens(uint256)":"634282af","checkAllFaucets(address)":"1c58d535","claimAllFaucets()":"6259d54d","deployAllTokens()":"58ace260","deployed()":"f905c15a","getAllTokens()":"2a5c792a","mBTC()":"94eae958","mDAI()":"37041dbd","mETH()":"29e84867","mLINK()":"cf81d3d0","mUSDC()":"f89ec5f5","mUSDE()":"45247973","mUSDT()":"71e35a8e","mintLiquidity(address,address,uint256)":"3fc3db59"},"id":2}