{"abi":[{"type":"constructor","inputs":[{"name":"name_","type":"string","internalType":"string"},{"name":"symbol_","type":"string","internalType":"string"},{"name":"decimals_","type":"uint8","internalType":"uint8"},{"name":"faucetAmount_","type":"uint256","internalType":"uint256"},{"name":"owner_","type":"address","internalType":"address"}],"stateMutability":"nonpayable"},{"type":"function","name":"FAUCET_COOLDOWN","inputs":[],"outputs":[{"name":"","type":"uint256","internalType":"uint256"}],"stateMutability":"view"},{"type":"function","name":"allowance","inputs":[{"name":"owner","type":"address","internalType":"address"},{"name":"spender","type":"address","internalType":"address"}],"outputs":[{"name":"","type":"uint256","internalType":"uint256"}],"stateMutability":"view"},{"type":"function","name":"approve","inputs":[{"name":"spender","type":"address","internalType":"address"},{"name":"value","type":"uint256","internalType":"uint256"}],"outputs":[{"name":"","type":"bool","internalType":"bool"}],"stateMutability":"nonpayable"},{"type":"function","name":"balanceOf","inputs":[{"name":"account","type":"address","internalType":"address"}],"outputs":[{"name":"","type":"uint256","internalType":"uint256"}],"stateMutability":"view"},{"type":"function","name":"canClaimFaucet","inputs":[{"name":"user","type":"address","internalType":"address"}],"outputs":[{"name":"canClaim","type":"bool","internalType":"bool"},{"name":"timeRemaining","type":"uint256","internalType":"uint256"}],"stateMutability":"view"},{"type":"function","name":"decimals","inputs":[],"outputs":[{"name":"","type":"uint8","internalType":"uint8"}],"stateMutability":"view"},{"type":"function","name":"faucet","inputs":[],"outputs":[],"stateMutability":"nonpayable"},{"type":"function","name":"faucetAmount","inputs":[],"outputs":[{"name":"","type":"uint256","internalType":"uint256"}],"stateMutability":"view"},{"type":"function","name":"faucetFor","inputs":[{"name":"user","type":"address","internalType":"address"}],"outputs":[],"stateMutability":"nonpayable"},{"type":"function","name":"lastFaucetClaim","inputs":[{"name":"","type":"address","internalType":"address"}],"outputs":[{"name":"","type":"uint256","internalType":"uint256"}],"stateMutability":"view"},{"type":"function","name":"mint","inputs":[{"name":"to","type":"address","internalType":"address"},{"name":"amount","type":"uint256","internalType":"uint256"}],"outputs":[],"stateMutability":"nonpayable"},{"type":"function","name":"name","inputs":[],"outputs":[{"name":"","type":"string","internalType":"string"}],"stateMutability":"view"},{"type":"function","name":"owner","inputs":[],"outputs":[{"name":"","type":"address","internalType":"address"}],"stateMutability":"view"},{"type":"function","name":"renounceOwnership","inputs":[],"outputs":[],"stateMutability":"nonpayable"},{"type":"function","name":"symbol","inputs":[],"outputs":[{"name":"","type":"string","internalType":"string"}],"stateMutability":"view"},{"type":"function","name":"totalSupply","inputs":[],"outputs":[{"name":"","type":"uint256","internalType":"uint256"}],"stateMutability":"view"},{"type":"function","name":"transfer","inputs":[{"name":"to","type":"address","internalType":"address"},{"name":"value","type":"uint256","internalType":"uint256"}],"outputs":[{"name":"","type":"bool","internalType":"bool"}],"stateMutability":"nonpayable"},{"type":"function","name":"transferFrom","inputs":[{"name":"from","type":"address","internalType":"address"},{"name":"to","type":"address","internalType":"address"},{"name":"value","type":"uint256","internalType":"uint256"}],"outputs":[{"name":"","type":"bool","internalType":"bool"}],"stateMutability":"nonpayable"},{"type":"function","name":"transferOwnership","inputs":[{"name":"newOwner","type":"address","internalType":"address"}],"outputs":[],"stateMutability":"nonpayable"},{"type":"event","name":"Approval","inputs":[{"name":"owner","type":"address","indexed":true,"internalType":"address"},{"name":"spender","type":"address","indexed":true,"internalType":"address"},{"name":"value","type":"uint256","indexed":false,"internalType":"uint256"}],"anonymous":false},{"type":"event","name":"FaucetClaimed","inputs":[{"name":"claimer","type":"address","indexed":true,"internalType":"address"},{"name":"amount","type":"uint256","indexed":false,"internalType":"uint256"},{"name":"nextClaimTime","type":"uint256","indexed":false,"internalType":"uint256"}],"anonymous":false},{"type":"event","name":"OwnershipTransferred","inputs":[{"name":"previousOwner","type":"address","indexed":true,"internalType":"address"},{"name":"newOwner","type":"address","indexed":true,"internalType":"address"}],"anonymous":false},{"type":"event","name":"Transfer","inputs":[{"name":"from","type":"address","indexed":true,"internalType":"address"},{"name":"to","type":"address","indexed":true,"internalType":"address"},{"name":"value","type":"uint256","indexed":false,"internalType":"uint256"}],"anonymous":false},{"type":"error","name":"ERC20InsufficientAllowance","inputs":[{"name":"spender","type":"address","internalType":"address"},{"name":"allowance","type":"uint256","internalType":"uint256"},{"name":"needed","type":"uint256","internalType":"uint256"}]},{"type":"error","name":"ERC20InsufficientBalance","inputs":[{"name":"sender","type":"address","internalType":"address"},{"name":"balance","type":"uint256","internalType":"uint256"},{"name":"needed","type":"uint256","internalType":"uint256"}]},{"type":"error","name":"ERC20InvalidApprover","inputs":[{"name":"approver","type":"address","internalType":"address"}]},{"type":"error","name":"ERC20InvalidReceiver","inputs":[{"name":"receiver","type":"address","internalType":"address"}]},{"type":"error","name":"ERC20InvalidSender","inputs":[{"name":"sender","type":"address","internalType":"address"}]},{"type":"error","name":"ERC20InvalidSpender","inputs":[{"name":"spender","type":"address","internalType":"address"}]},{"type":"error","name":"FaucetCooldownActive","inputs":[{"name":"timeRemaining","type":"uint256","internalType":"uint256"}]},{"type":"error","name":"OwnableInvalidOwner","inputs":[{"name":"owner","type":"address","internalType":"address"}]},{"type":"error","name":"OwnableUnauthorizedAccount","inputs":[{"name":"account","type":"address","internalType":"address"}]}],"bytecode":{"object":"0x60c060405234801561000f575f80fd5b50604051610eee380380610eee83398101604081905261002e91610186565b808585600361003d83826102af565b50600461004a82826102af565b5050506001600160a01b03811661007a57604051631e4fbdf760e01b81525f600482015260240160405180910390fd5b61008381610098565b505060ff90911660805260a052506103699050565b600580546001600160a01b038381166001600160a01b0319831681179093556040519116919082907f8be0079c531659141344cd1fd0a4f28419497f9722a3daafe3b4186f6b6457e0905f90a35050565b634e487b7160e01b5f52604160045260245ffd5b5f82601f83011261010c575f80fd5b81516001600160401b03811115610125576101256100e9565b604051601f8201601f19908116603f011681016001600160401b0381118282101715610153576101536100e9565b60405281815283820160200185101561016a575f80fd5b8160208501602083015e5f918101602001919091529392505050565b5f805f805f60a0868803121561019a575f80fd5b85516001600160401b038111156101af575f80fd5b6101bb888289016100fd565b602088015190965090506001600160401b038111156101d8575f80fd5b6101e4888289016100fd565b945050604086015160ff811681146101fa575f80fd5b6060870151608088015191945092506001600160a01b038116811461021d575f80fd5b809150509295509295909350565b600181811c9082168061023f57607f821691505b60208210810361025d57634e487b7160e01b5f52602260045260245ffd5b50919050565b601f8211156102aa57805f5260205f20601f840160051c810160208510156102885750805b601f840160051c820191505b818110156102a7575f8155600101610294565b50505b505050565b81516001600160401b038111156102c8576102c86100e9565b6102dc816102d6845461022b565b84610263565b6020601f82116001811461030e575f83156102f75750848201515b5f19600385901b1c1916600184901b1784556102a7565b5f84815260208120601f198516915b8281101561033d578785015182556020948501946001909201910161031d565b508482101561035a57868401515f19600387901b60f8161c191681555b50505050600190811b01905550565b60805160a051610b566103985f395f81816102b201528181610725015261074f01525f6101e00152610b565ff3fe608060405234801561000f575f80fd5b5060043610610149575f3560e01c80637d1d5d19116100c75780639c2814301161007d578063dd62ed3e11610063578063dd62ed3e146102e7578063de5f72fd1461031f578063f2fde38b14610327575f80fd5b80639c281430146102ad578063a9059cbb146102d4575f80fd5b80638a877205116100ad5780638a8772051461026b5780638da5cb5b1461028a57806395d89b41146102a5575f80fd5b80637d1d5d191461024f578063801a476514610258575f80fd5b806323b872dd1161011c57806340c10f191161010257806340c10f191461020a57806370a082311461021f578063715018a614610247575f80fd5b806323b872dd146101c6578063313ce567146101d9575f80fd5b806301d8a2961461014d57806306fdde031461017c578063095ea7b31461019157806318160ddd146101b4575b5f80fd5b61016061015b3660046109c6565b61033a565b6040805192151583526020830191909152015b60405180910390f35b6101846103a2565b60405161017391906109e6565b6101a461019f366004610a1b565b610432565b6040519015158152602001610173565b6002545b604051908152602001610173565b6101a46101d4366004610a43565b61044b565b60405160ff7f0000000000000000000000000000000000000000000000000000000000000000168152602001610173565b61021d610218366004610a1b565b61046e565b005b6101b861022d3660046109c6565b6001600160a01b03165f9081526020819052604090205490565b61021d610484565b6101b8610e1081565b61021d6102663660046109c6565b610497565b6101b86102793660046109c6565b60066020525f908152604090205481565b6005546040516001600160a01b039091168152602001610173565b6101846104ab565b6101b87f000000000000000000000000000000000000000000000000000000000000000081565b6101a46102e2366004610a1b565b6104ba565b6101b86102f5366004610a7d565b6001600160a01b039182165f90815260016020908152604080832093909416825291909152205490565b61021d6104c7565b61021d6103353660046109c6565b6104d0565b6001600160a01b0381165f90815260066020526040812054819080820361036757506001935f9350915050565b5f6103728242610ac2565b9050610e10811061038a57506001945f945092505050565b5f61039782610e10610ac2565b935093505050915091565b6060600380546103b190610ad5565b80601f01602080910402602001604051908101604052809291908181526020018280546103dd90610ad5565b80156104285780601f106103ff57610100808354040283529160200191610428565b820191905f5260205f20905b81548152906001019060200180831161040b57829003601f168201915b5050505050905090565b5f3361043f81858561050f565b60019150505b92915050565b5f33610458858285610521565b61046385858561059d565b506001949350505050565b6104766105fa565b6104808282610627565b5050565b61048c6105fa565b6104955f61065b565b565b61049f6105fa565b6104a8816106c4565b50565b6060600480546103b190610ad5565b5f3361043f81858561059d565b610495336106c4565b6104d86105fa565b6001600160a01b03811661050657604051631e4fbdf760e01b81525f60048201526024015b60405180910390fd5b6104a88161065b565b61051c83838360016107b3565b505050565b6001600160a01b038381165f908152600160209081526040808320938616835292905220545f19811015610597578181101561058957604051637dc7a0d960e11b81526001600160a01b038416600482015260248101829052604481018390526064016104fd565b61059784848484035f6107b3565b50505050565b6001600160a01b0383166105c657604051634b637e8f60e11b81525f60048201526024016104fd565b6001600160a01b0382166105ef5760405163ec442f0560e01b81525f60048201526024016104fd565b61051c838383610885565b6005546001600160a01b031633146104955760405163118cdaa760e01b81523360048201526024016104fd565b6001600160a01b0382166106505760405163ec442f0560e01b81525f60048201526024016104fd565b6104805f8383610885565b600580546001600160a01b038381167fffffffffffffffffffffffff0000000000000000000000000000000000000000831681179093556040519116919082907f8be0079c531659141344cd1fd0a4f28419497f9722a3daafe3b4186f6b6457e0905f90a35050565b5f806106cf8361033a565b91509150816106f457604051639ad22e0f60e01b8152600481018290526024016104fd565b6001600160a01b0383165f908152600660205260408120429081905561071d90610e1090610b0d565b9050610749847f0000000000000000000000000000000000000000000000000000000000000000610627565b604080517f00000000000000000000000000000000000000000000000000000000000000008152602081018390526001600160a01b038616917fa19a7d2b5bf6a987a66e0eac8a6eb2dbd34ae6a43285849af788b224268ec022910160405180910390a250505050565b6001600160a01b0384166107dc5760405163e602df0560e01b81525f60048201526024016104fd565b6001600160a01b03831661080557604051634a1406b160e11b81525f60048201526024016104fd565b6001600160a01b038085165f908152600160209081526040808320938716835292905220829055801561059757826001600160a01b0316846001600160a01b03167f8c5be1e5ebec7d5bd14f71427d1e84f3dd0314c0f7b2291e5b200ac8c7c3b9258460405161087791815260200190565b60405180910390a350505050565b6001600160a01b0383166108af578060025f8282546108a49190610b0d565b9091555061091f9050565b6001600160a01b0383165f90815260208190526040902054818110156109015760405163391434e360e21b81526001600160a01b038516600482015260248101829052604481018390526064016104fd565b6001600160a01b0384165f9081526020819052604090209082900390555b6001600160a01b03821661093b57600280548290039055610959565b6001600160a01b0382165f9081526020819052604090208054820190555b816001600160a01b0316836001600160a01b03167fddf252ad1be2c89b69c2b068fc378daa952ba7f163c4a11628f55a4df523b3ef8360405161099e91815260200190565b60405180910390a3505050565b80356001600160a01b03811681146109c1575f80fd5b919050565b5f602082840312156109d6575f80fd5b6109df826109ab565b9392505050565b602081525f82518060208401528060208501604085015e5f604082850101526040601f19601f83011684010191505092915050565b5f8060408385031215610a2c575f80fd5b610a35836109ab565b946020939093013593505050565b5f805f60608486031215610a55575f80fd5b610a5e846109ab565b9250610a6c602085016109ab565b929592945050506040919091013590565b5f8060408385031215610a8e575f80fd5b610a97836109ab565b9150610aa5602084016109ab565b90509250929050565b634e487b7160e01b5f52601160045260245ffd5b8181038181111561044557610445610aae565b600181811c90821680610ae957607f821691505b602082108103610b0757634e487b7160e01b5f52602260045260245ffd5b50919050565b8082018082111561044557610445610aae56fea2646970667358221220d8bce1213c83a423e6fd7913d491c6ce5e13c5e90fad6313144751ad92053c9b64736f6c634300081a0033","linkReferences":{}},"methodIdentifiers":{"FAUCET_COOLDOWN()":"7d1d5d19","allowance(address,address)":"dd62ed3e","approve(address,uint256)":"095ea7b3","balanceOf(address)":"70a08231","canClaimFaucet(address)":"01d8a296","decimals()":"313ce567","faucet()":"de5f72fd","faucetAmount()":"9c281430","faucetFor(address)":"801a4765","lastFaucetClaim(address)":"8a877205","mint(address,uint256)":"40c10f19","name()":"06fdde03","owner()":"8da5cb5b","renounceOwnership()":"715018a6","symbol()":"95d89b41","totalSupply()":"18160ddd","transfer(address,uint256)":"a9059cbb","transferFrom(address,address,uint256)":"23b872dd","transferOwnership(address)":"f2fde38b"},"id":1}